:1000000019C032C031C030C02FC02EC02DC02CC08E
:100010002BC02AC029C028C027C026C025C024C0A4
:1000200023C022C021C020C01FC01EC01DC01CC0D4
:100030001BC01AC011241FBECFEFD4E0DEBFCDBF5E
:1000400011E0A0E0B1E0E6EAF0E002C005900D9218
:10005000A030B107D9F711E0A0E0B1E001C01D92D6
:10006000A030B107E1F711C0CBCF41E050E009C0AB
:1000700001970097E9F721503040E9F7415050408F
:1000800019F02FEF3FEFF5CF0895CFEFD4E0DEBFAB
:10009000CDBF3D9A459884EF91E0E7DF459A84EF24
:0600A00091E0E3DFF7CF61
:00000001FF
